:1000000004308A00812C00000C15D6376C3AE93692
:10001000653AF2372A000C00D6183A102517333308
:10002000202B000056193A1025173333202B0000DF
:10003000353084008313000803192B280630F8009C
:10004000F701F70B2128F80B20287B30F700F70B7E
:100050002728800B1E2808003C0EF039F7000F30CF
:10006000080577048800000008140230F700F70B39
:1000700037283A280000081008000808F700080E82
:100080000F39F80008008316081088100811831231
:1000900088100F3083160805F03888008312081581
:1000A0000000081400003D207808BC000810000083
:1000B00008145A285B2800003D207808BB0008106F
:1000C0000F3083160805880083123C0EF700F030CD
:1000D000F70577083B04F8007808BB00BB1B4928EC
:1000E000391C881039188814000008110000081005
:1000F0003A0EBB000F30BB053B08BC002C203A0871
:100100000F39BB00BC002C20080083161F1383127C
:100110001F179F1783169F1783121F1483161F1014
:100120009F101F119F1128308312A8000C30A900C6
:100130000130AA000630AB000810881008110F30FB
:100140008316080588000810881008110F308312E4
:10015000B50018200130A7002708033C031CB8286D
:100160000330BC002C200530B5001820A70AAC28AD
:100170000230BC002C200530B5001820A70127084C
:10018000033C031CCF282830270784008313000872
:10019000AC00B9012C08BA004320A70ABF288A1175
:1001A0000A128E2C360BD528D8284030B700D92813
:1001B000B70101303502B70737088038B800B901F8
:1001C0003808BA00432008003408073A0319F22817
:1001D0000B3A0319F728063A0319FF28023A0319C4
:1001E00005290A290130B500B600D2200F29B9012E
:1001F0000130BA0043200230B50018200F29013029
:10020000B5000230B600D2200F29B9011030BA0073
:1002100043200F290130B9003408BA0043200800F8
:100220000B08A7008B13831603178C170C14000000
:10023000000083120313A71B8B1703170C087F39C9
:10024000031964290313A70003170D080313A8005B
:1002500003170F080313A9002708B400E420280897
:1002600003178D000313290803178F0003130B08CE
:10027000AA008B13831603178C170C1400000000C0
:1002800083120313AA1B8B1703170C0D0E0D7F3956
:10029000031964290313A70003170D080313A8000B
:1002A00003170F080313A9002708B400E420280847
:1002B00003178D000313290803178F008D0A0319F4
:1002C0008F0A0313102903170313080034080319B6
:1002D000D629BC0038080319D629BC07031877298A
:1002E0007F30BC02031CD6290319D6297B29813013
:1002F000BC070318D6293C08F700F801F901FA01F8
:100300003508C000C0173608BF003708BE001830D7
:10031000BC00BD013E1CA4293B08FA07031C96291A
:10032000F90A031D9629F80A0319BD173A08F907B7
:10033000031C9D29F80A0319BD173908B600B61722
:100340003608F8070318BD17BD0DF80CF90CFA0CA8
:10035000C00CBF0CBE0C0310BC0B89290130F70781
:100360000318D629F81BBB29C00DFA0DF90DF80D9D
:10037000F7030319D629C01FCC29FA0A031DCC297B
:10038000F90A031DCC29F80A031DCC29F80CF90C35
:10039000FA0CF70A0319D6293508BD003908BD063D
:1003A000BD1FD429F817DA29F813DA29F701F80163
:1003B000F901FA0108002808AE002708AD008E30C8
:1003C000F7002E08F8002D08F900FA01F808031DBF
:1003D000F3297908F800F9010830F702F808031D3D
:1003E000F329F701FB290310F81BFA29F90DF80D81
:1003F000F703F329F8137A08B0007908AF007808FA
:10040000AE007708AD00B401C030B3007F30B20059
:100410008830B1002D080319CF2AB900310803191B
:10042000CF2AB902031C192A7F30B9070318CF2A33
:100430001F2A8130B902031CCF2A0319CF2A390899
:10044000F700F801F901FA01B8012E08B700B71753
:100450002F08B6003008B5001930B9003408B502CD
:100460000318422A0130B6020318422AB7020318C1
:10047000422AB8020318422AB80AB70AB60A340850
:10048000B507742A3308B60203185D2A0130B70293
:1004900003185D2AB80203185D2AB80AB70A3308A0
:1004A000B6073408B507031C742AB60A031D742A5C
:1004B000B70A031D742AB80A742A32088038B702B2
:1004C0000318732A0130B8020318732AB80A3208D5
:1004D0008038B7073308B607031C512AB70A031D33
:1004E000512AB80A512A7A14B90B772A822A0310A2
:1004F000B50DB60DB70DB80D0310FA0DF90DF80DC9
:10050000BA0D2E2A3A1C8A2A0310F80CF90CFA0CA0
:10051000BA0C8D2AF7030319CF2ABA1BB62A031087
:10052000B50DB60DB70DB80D3408B5020318A22AE3
:100530000130B6020318A22AB7020318A22AB80291
:10054000031CC52A3308B6020318AD2A0130B702CE
:100550000318AD2AB802031CC52A32088038B70236
:100560000318B62A0130B802031CC52AFA0A031D73
:10057000C52AF90A031DC52AF80A031DC52AF70A68
:100580000319CF2AF80CF90CFA0C2E08B90032081E
:10059000B906B91FCD2AF817D32AF813D32AF701C1
:1005A000F801F901FA017A08B0007908AF0078087B
:1005B000AE007708AD007A08B7007908B600780871
:1005C000B5007708B400BB01BA012030B900813012
:1005D000B80066217A08AC007908AB007808AA0058
:1005E0007708A9002908F7002A08F8002B08F90065
:1005F0002C08FA0008000B08A8008B1383160317B9
:100600008C170C140000000083120313A81B8B1717
:100610000318322B03170C087F390313A8000317A4
:100620000D080313A90003170F080313AA002808D5
:10063000B400E420290803178D0003132A080317C8
:100640008F0003130B08AB008B13831603178C1753
:100650000C140000000083120313AB1B8B17A70BB5
:10066000322B512B03170C0D0E0D7F390313A800ED
:1006700003170D080313A90003170F080313AA009B
:100680002808B400E420290803178D0003132A0862
:1006900003178F008D0A03198F0A03100313A70B8A
:1006A000FB2A08008318572B3C3084008313F70182
:1006B000F801F901FA01BC01BD01BE01BF013B080F
:1006C0003A04390438040319952B2030C000031074
:1006D000B40DB50DB60DB70DBC0DBD0DBE0DBF0DE6
:1006E0003B083F02031D7E2B3A083E02031D7E2B72
:1006F00039083D02031D7E2B38083C02031C8F2B5A
:100700003808BC023908031C390FBD023A08031C23
:100710003A0FBE023B08031C3B0FBF020314F70D48
:10072000F80DF90DFA0DC00B672B3C088000840A08
:100730003D088000840A3E088000840A3F0880004B
:1007400008000408AC002B08AE000319C02B2A08CF
:10075000B7002908B6002808B5002708B400BB0177
:10076000BA012030B9008230B80066217A08AA00A8
:100770007908A9007808A8007708A700AE0BA72B76
:100780002A08B7002908B6002808B5002708B400D1
:100790003408B63CB400FA013508B800B5170310A8
:1007A000B50CB60CB70CFA0CF90CF80CF70CB40B32
:1007B000CF2BB81FE62BF709F809F909FA09F70A50
:1007C0000319F80A0319F90A0319FA0A7A08AA00A0
:1007D0007908A9007808A8007708A700AA1FFD2BB0
:1007E000AC03AC16A709A809A909AA09A70A031905
:1007F000A80A0319A90A0319AA0A3B30B3009A30C0
:10080000B200CA30B100B0010A30AE002B080319A3
:10081000AC0A83142730840083132A08B700290800
:10082000B6002808B5002708B4003308BB0032081A
:10083000BA003108B9003008B80052237808F70828
:10084000031D352C2B0A2E020319352C2C080319F5
:10085000372C0F392E0203192F2C0318672CAC1BD1
:10086000672C2C1B372C2030632C2030AC05AC1EA1
:10087000452CAC122B08031DAC037708AC002D30BF
:10088000B400E4202C08F700AC012B082E02031D55
:10089000532C7708AC002E30B400E4202C08F7006D
:1008A0002030AC0500303030AC1E632CAC122B086D
:1008B000031DAC037708AC002D30B400E4202C08F5
:1008C000F700AC013030F7077708B400E42083105C
:1008D0003308B7003208B6003108B5003008B4005C
:1008E000BB01BA01B9010A30B80052237A08B3003B
:1008F0007908B2007808B1007708B000AE0B092C77
:10090000080003081F39830083161F149F141F1546
:100910009F1107309C00831383128528043003172E
:100920008D0000308F00031310210430A700FA302F
:10093000B5001820A70B972C0B3003178D00003043
:100940008F00031310210030F8001F08C739780406
:100950009F002930F700F70BAB2C00001F151F1963
:10096000AF2C83161E088312A1001E08A2000130BE
:10097000B500B600D2202208A8002108A700DB217C
:100980007A08A6007908A5007808A4007708A300D3
:100990000C3003178D0000308F0003100430031358
:1009A000A700FB22893084002608AA002508A90098
:1009B0002408A8002308A7000330AB00A12320309F
:1009C000B400E4205630B400E4200830F8001F08DA
:1009D000C73978049F002930F700F70BED2C000091
:1009E0001F151F19F12C83161E088312A1001E0863
:1009F000A2000130B5000230B600D2202208A800C3
:100A00002108A700DB217A08A6007908A50078084C
:100A1000A4007708A300123003178D0000308F0068
:100A2000031004300313A700FB228930840026083A
:100A3000AA002508A9002408A8002308A70003305D
:100A4000AB00A1232030B400E4205630B400E420F1
:040A5000A32C630070
:02400E00323F3F
:00000001FF
;PIC16F877A
;CRC=5FF0  CREATED="04-jun.-23 00:49"
